{
  "contractName": "AdInteractionAggregator",
  "abi": [
    {
      "anonymous": false,
      "inputs": [
        {
          "indexed": true,
          "internalType": "uint256",
          "name": "adId",
          "type": "uint256"
        },
        {
          "indexed": false,
          "internalType": "bool",
          "name": "isUpvote",
          "type": "bool"
        }
      ],
      "name": "AdInteraction",
      "type": "event"
    },
    {
      "constant": false,
      "inputs": [
        {
          "internalType": "uint256",
          "name": "adId",
          "type": "uint256"
        },
        {
          "internalType": "bool",
          "name": "isUpvote",
          "type": "bool"
        }
      ],
      "name": "aggregate_and_submit_ad_interactions",
      "outputs": [],
      "payable": false,
      "stateMutability": "nonpayable",
      "type": "function"
    }
  ],
  "bytecode": "0x6080604052348015600f57600080fd5b5060d98061001e6000396000f3fe6080604052348015600f57600080fd5b506004361060285760003560e01c806302fe845514602d575b600080fd5b606260048036036040811015604157600080fd5b81019080803590602001909291908035151590602001909291905050506064565b005b817f149a404940b0badcc1fa712a06fe99cae8f70afafdce089ccc203711658523c782604051808215151515815260200191505060405180910390a2505056fea265627a7a723158200e41ec8b157b4064347d74bc506afc286407b340664eea3f5bb7bd8eed5abf0564736f6c63430005100032",
  "source": "// SPDX-License-Identifier: MIT\npragma solidity ^0.5.0;\n\ncontract AdInteractionAggregator {\n    // Event to track ad interactions\n    event AdInteraction(uint256 indexed adId, bool isUpvote);\n\n    // Function to aggregate and submit ad interactions\n    function aggregate_and_submit_ad_interactions(\n        uint256 adId,\n        bool isUpvote\n    ) external {\n        // Perform aggregation of ad interactions here\n        // For example, you can emit an event to track the ad interaction\n        emit AdInteraction(adId, isUpvote);\n    }\n}\n",
  "sourcePath": "/Users/jason/adnetwork/zk-ads/contracts/AdInteractionAggregator.sol",
  "compiler": {
    "name": "solc",
    "version": "0.5.16+commit.9c3226ce.Emscripten.clang"
  },
  "schemaVersion": "3.4.14",
  "updatedAt": "2023-07-22T11:32:01.977Z",
  "devdoc": {
    "methods": {}
  },
  "userdoc": {
    "methods": {}
  }
}